:020000021000EC
:10FC000001C0DDC0112484B714BE982F9D7009F087
:10FC10000ED185E08093810082E08093C00088E16E
:10FC20008093C10086E08093C20083E18093C4008A
:10FC30008EE0E8D0259A84E02BE93BEF91E0309309
:10FC400085002093840096BBB09BFECF1D9AA8959B
:10FC50008150A9F7C0E0D0E0C9D0813471F4C6D09A
:10FC6000182FD6D0123811F482E005C0113811F4E3
:10FC700086E001C083E0B3D09FC0823411F484E1F8
:10FC800003C0853419F485E0CBD096C0853569F47E
:10FC9000ADD0C82FABD0D0E0D82B8D2F881F8827B0
:10FCA000881F8BBFCC0FDD1F86C0863521F484E012
:10FCB000B7D080E0E0CF843609F04BC097D0082F52
:10FCC00010E0102F002792D0082B90D0B82E78018A
:10FCD000C12C22E0D22E8AD0F60181936F01F1E08F
:10FCE000EF1AF108C1F794D085E4B81213C0680187
:10FCF000EEEFDE1A7E0100E012E00C151D0509F49E
:10FD00005BC0F80161918F01C7019FD0FFEFEF1A2F
:10FD1000FF0AF3CF40E050E063E0CE0150D0E12C89
:10FD2000F12CF701FE5F40813196808150E0582B25
:10FD300061E0C7018C0F9D1F42D082E0E80EF11CEC
:10FD40000E151F0571F740E050E065E0CE0137D099
:10FD500033C0843719F54AD0082F10E0102F002740
:10FD600045D0082B43D0F82E53D0E5E4FE120DC049
:10FD70007E01C70162D033D001501109FFEFEF1AA5
:10FD8000FF0A01151105A9F717C07E01F701879138
:10FD90007F0125D001501109C9F70EC0853739F40C
:10FDA00037D08EE11CD087E91AD084E064CF81354A
:10FDB00011F488E027D02CD080E111D04DCFFC0188
:10FDC0000A0167BFE895112407B600FCFDCF6670F5
:10FDD00029F0452B19F481E187BFE89508959091AA
:10FDE000C00095FFFCCF8093C60008958091C000AD
:10FDF00087FFFCCF8091C00084FD01C0A895809151
:10FE0000C6000895E0E6F0E098E1908380830895CD
:10FE1000EDDF803219F088E0F5DFFFCF84E1DFCF3E
:10FE2000CF93C82FE3DFC150E9F7CF91F1CF282E50
:10FE300080E0E8DFE0E0FF270994E199FECF9FBB77
:10FE40008EBBE09A99278DB30895262FE199FECFB6
:10FE50009FBB8EBB2DBB0FB6F894E29AE19A0FBE02
:04FE6000019608956A
:02FFFE000206F9
:040000031000FC00ED
:00000001FF
