:10FC000001C0DAC011248FEF90E19EBF8DBF84B791
:10FC100014BE982F9D7009F000D185E08EBD82E062
:10FC20008BB988E18AB986E08093950089E189B92A
:10FC30008EE0E0D0BD9A24E088E19EEF54E040E2FF
:10FC40009DBD8CBD56BF06B602FEFDCF38B334272E
:10FC500038BBA8952150A1F7C0E0D0E0C4D08134D2
:10FC600069F4C1D0182FCAD0123809F49BC01138DA
:10FC700011F486E001C083E0B2D09BC0823411F45D
:10FC800084E103C0853419F485E0C0D092C0853585
:10FC900041F4A9D0C82FA7D0D0E0D82BCC0FDD1FBE
:10FCA00087C0863521F484E0B1D080E0E5CF84368A
:10FCB00009F04AC098D0E82EF12CFE2CEE2493D007
:10FCC000E82A91D0B82E8701C12CDD24D3948BD0A3
:10FCD000F60181936F010150110901151105B9F762
:10FCE0008DD0F5E4BF1212C0EC0EFD1E8E01C12CAA
:10FCF000DD24D3940E151F0509F45BC0F601619154
:10FD00006F01C80198D00F5F1F4FF4CF40E050E063
:10FD100063E0CE0151D000E010E0F801F39540819E
:10FD20003196808150E0582B61E0C8018C0F9D1FF7
:10FD300043D00E5F1F4FE016F10679F740E050E028
:10FD400065E0CE0139D035C0843729F54CD0082F75
:10FD500010E0102F002747D0082B45D0F82E4ED0AA
:10FD6000F5E4FF120DC07E01C7015DD038D001500F
:10FD700011098FEFE81AF80A01151105A9F719C042
:10FD80007E01F70185917F012AD0015011090115EB
:10FD90001105B9F70EC0853739F430D08EE11FD088
:10FDA00086E91DD082E068CF813511F488E022D049
:10FDB00025D080E114D052CFFC010A016093680085
:10FDC000E89511248091680080FDFCCF667031F0C9
:10FDD000452B21F481E180936800E89508955D9BAF
:10FDE000FECF8CB908955F9BFECF5C9901C0A895AA
:10FDF0008CB1089598E191BD81BD0895F4DF803202
:10FE000019F088E0F7DFFFCF84E1E9CFCF93C82F67
:10FE1000EADFC150E9F7CF91F1CF282E80E0EADF89
:10FE2000E0E0FF270994E199FECF9FBB8EBBE09AEB
:10FE300099278DB30895262FE199FECF9FBB8EBBE6
:10FE40002DBB0FB6F894E29AE19A0FBE0196089581
:02FFFE000206F9
:040000030000FC00FD
:00000001FF
