:020000021000EC
:10FC000001C0DDC011248FEF90E19EBF8DBF84B78E
:10FC100014BE982F9D7009F003D185E08EBD82E05F
:10FC20008BB988E18AB986E08093950080E189B933
:10FC30008EE0E3D0BD9A84E040E35CEF34E020E264
:10FC40005DBD4CBD36BF06B602FEFDCF98B3922710
:10FC500098BBA8958150A1F7C0E0D0E0C7D081340F
:10FC600069F4C4D0182FCDD0123809F49EC01138D1
:10FC700011F486E001C083E0B5D09EC0823411F457
:10FC800084E103C0853419F485E0C3D095C085357F
:10FC900069F4ACD0C82FAAD0D0E0D82B8D2F881F04
:10FCA0008827881F8BBFCC0FDD1F85C0863521F4C8
:10FCB00084E0AFD080E0E0CF843609F04AC096D02F
:10FCC000082F10E0102F002791D0082B8FD0B82ECE
:10FCD0007801C12CDD24D39489D0F60181936F0182
:10FCE000F1E0EF1AF108C1F78CD085E4B81212C028
:10FCF0006801D3947E0100E011E00C151D0509F4A4
:10FD00005BC0F80161918F01C70198D0FFEFEF1A36
:10FD1000FF0AF3CF40E050E063E0CE0150D0E12C89
:10FD2000F12CF701F39540813196808150E0582BFA
:10FD300061E0C7018C0F9D1F42D082E0E80EF11CEC
:10FD40000E151F0571F740E050E065E0CE0137D099
:10FD500033C0843719F54AD0082F10E0102F002740
:10FD600045D0082B43D0F82E4CD0E5E4FE120DC050
:10FD70007E01C7015BD036D001501109FFEFEF1AA9
:10FD8000FF0A01151105A9F717C07E01F701879138
:10FD90007F0128D001501109C9F70EC0853739F409
:10FDA00030D08EE11FD087E91DD082E065CF81354C
:10FDB00011F488E022D025D080E114D04FCFFC018F
:10FDC0000A0160936800E89511248091680080FD25
:10FDD000FCCF667031F0452B21F481E180936800FF
:10FDE000E89508955D9BFECF8CB908955F9BFECF8B
:10FDF0005C9901C0A8958CB1089598E191BD81BD31
:10FE00000895F4DF803219F088E0F7DFFFCF84E156
:10FE1000E9CFCF93C82FEADFC150E9F7CF91F1CFF7
:10FE2000282E80E0EADFE0E0FF270994E199FECF89
:10FE30009FBB8EBBE09A99278DB30895262FE19939
:10FE4000FECF9FBB8EBB2DBB0FB6F894E29AE19A12
:06FE50000FBE01960895AB
:02FFFE000206F9
:040000031000FC00ED
:00000001FF
