:020000021000EC
:10FC000001C0DFC011248FEF90E19EBF8DBF84B78C
:10FC100014BE982F9D7009F005D185E08EBD82E05D
:10FC20008BB988E18AB986E08093950080E189B933
:10FC30008EE0E5D0BD9A24E088E19EEF54E040E2FA
:10FC40009DBD8CBD56BF06B602FEFDCF38B334272E
:10FC500038BBA8952150A1F7C0E0D0E0C9D08134CD
:10FC600069F4C6D0182FCFD0123809F4A0C01138CB
:10FC700011F486E001C083E0B7D0A0C0823411F453
:10FC800084E103C0853419F485E0C5D097C085357B
:10FC900069F4AED0C82FACD0D0E0D82B8D2F881F00
:10FCA0008827881F8BBFCC0FDD1F87C0863521F4C6
:10FCB00084E0B1D080E0E0CF843609F04AC098D02B
:10FCC000E82EF12CFE2CEE2493D0E82A91D0B82E09
:10FCD0008701C12CDD24D3948BD0F60181936F0171
:10FCE0000150110901151105B9F78DD0F5E4BF12C6
:10FCF00012C0EC0EFD1E8E01C12CDD24D3940E1516
:10FD00001F0509F45BC0F60161916F01C80198D02D
:10FD10000F5F1F4FF4CF40E050E063E0CE0151D0C1
:10FD200000E010E0F801F39540813196808150E0C9
:10FD3000582B61E0C8018C0F9D1F43D00E5F1F4FF1
:10FD4000E016F10679F740E050E065E0CE0139D0E9
:10FD500035C0843729F54CD0082F10E0102F00272C
:10FD600047D0082B45D0F82E4ED0F5E4FF120DC039
:10FD70007E01C7015DD038D0015011098FEFE81A1C
:10FD8000F80A01151105A9F719C07E01F70187913D
:10FD90007F012AD00150110901151105B9F70EC0D4
:10FDA000853739F430D08EE11FD087E91DD082E04D
:10FDB00063CF813511F488E022D025D080E114D0C2
:10FDC0004DCFFC010A0160936800E89511248091F1
:10FDD000680080FDFCCF667031F0452B21F481E195
:10FDE00080936800E89508955D9BFECF8CB90895D7
:10FDF0005F9BFECF5C9901C0A8958CB1089598E1F6
:10FE000091BD81BD0895F4DF803219F088E0F7DFFD
:10FE1000FFCF84E1E9CFCF93C82FEADFC150E9F7E4
:10FE2000CF91F1CF282E80E0EADFE0E0FF270994B0
:10FE3000E199FECF9FBB8EBBE09A99278DB30895C1
:10FE4000262FE199FECF9FBB8EBB2DBB0FB6F8943A
:0AFE5000E29AE19A0FBE01960895B0
:02FFFE000206F9
:040000031000FC00ED
:00000001FF
