:020000021000EC
:10FC000001C0E2C01F92CDB7DEB711248FEF90E1A3
:10FC10009EBF8DBF84B714BE982F9D7009F005D18B
:10FC200085E08EBD82E08BB988E18AB986E0809359
:10FC3000950089E189B98EE0E5D0BD9A24E084E29F
:10FC40009DEF54E040E29DBD8CBD56BF06B602FE5E
:10FC5000FDCF38B3342738BBA8952150A1F7812CAC
:10FC6000912CC9D0813471F4C6D08983CFD08981D9
:10FC7000823809F49FC0813811F486E001C083E026
:10FC8000B6D09FC0823411F484E103C0853419F4E6
:10FC900085E0C4D096C0853569F4ADD0882EABD050
:10FCA000912C982A892D881F8827881F8BBF880C44
:10FCB000991C86C0863521F484E0B0D080E0E0CF86
:10FCC000843609F04AC097D0E82EF12CFE2CEE24A1
:10FCD00092D0E82A90D0B82E8701C12CDD24D3948D
:10FCE0008AD0F60181936F010150110901151105A8
:10FCF000B9F78CD0F5E4BF1212C0E80CF91C8401EE
:10FD0000C12CDD24D3940E151F0509F45AC0F60149
:10FD100061916F01C80197D00F5F1F4FF4CF40E092
:10FD200050E063E0C40150D000E010E0F801F3952A
:10FD300040813196808150E0582B61E0C801880DE8
:10FD4000991D42D00E5F1F4FE016F10679F740E093
:10FD500050E065E0C40138D034C0843721F54BD081
:10FD6000082F10E0102F002746D0082B44D089839D
:10FD70004DD089817401853461F4C7015CD037D0DE
:10FD800001501109FFEFEF1AFF0A01151105A9F73C
:10FD900018C0F70187917F012AD001501109011580
:10FDA0001105B9F70EC0853739F430D08EE11FD078
:10FDB00087E91DD082E064CF813511F488E022D03C
:10FDC00025D080E114D04DCFFC010A01609368007A
:10FDD000E89511248091680080FDFCCF667031F0B9
:10FDE000452B21F481E180936800E89508955D9B9F
:10FDF000FECF8CB908955F9BFECF5C9901C0A8959A
:10FE00008CB1089598E191BD81BD0895F4DF8032F1
:10FE100019F088E0F7DFFFCF84E1E9CFCF93C82F57
:10FE2000EADFC150E9F7CF91F1CF282E80E0EADF79
:10FE3000E0E0FF270994E199FECF9FBB8EBBE09ADB
:10FE400099278DB30895262FE199FECF9FBB8EBBD6
:10FE50002DBB0FB6F894E29AE19A0FBE0196089571
:02FFFE000206F9
:040000031000FC00ED
:00000001FF
