:020000021000EC
:10FC000001C0DCC0112484B714BE982F9D7009F088
:10FC10000DD185E08093810082E08093C00088E16F
:10FC20008093C10086E08093C20080E18093C4008D
:10FC30008EE0E7D0279A84E020E33CEF91E0309318
:10FC400085002093840096BBB09BFECF1F9AA89599
:10FC50008150A9F7C0E0D0E0C8D08134C9F4C5D044
:10FC6000182FD5D0123811F482E010C0113869F481
:10FC700086E00CC0843709F476C0853709F096C059
:10FC8000C6D08EE1ABD087E9A9D083E0A7D093C0DE
:10FC9000823411F484E103C0853419F485E0BFD0C7
:10FCA0008AC0853569F4A1D0C82F9FD0D0E0D82B69
:10FCB0008D2F881F8827881F8BBFCC0FDD1F7AC030
:10FCC000863521F484E0ABD080E0E0CF843691F635
:10FCD0008CD0082F10E0102F002787D0082B85D05C
:10FCE000B82E7801C12C22E0D22E7FD0F60181936C
:10FCF0006F01F1E0EF1AF108C1F789D085E4B8127D
:10FD000013C06801EEEFDE1A7E0100E012E00C1570
:10FD10001D0509F450C0F80161918F01C70194D00D
:10FD2000FFEFEF1AFF0AF3CF40E050E063E0CE01AF
:10FD300045D0E12CF12CF701FE5F408131968081A6
:10FD400050E0582B61E0C7018C0F9D1F37D082E037
:10FD5000E80EF11C0E151F0571F740E050E065E05C
:10FD6000CE012CD028C041D0082F10E0102F002742
:10FD70003CD0082B3AD0F82E4AD0E5E4FE120DC054
:10FD80007E01C70159D02AD001501109FFEFEF1AA7
:10FD9000FF0A01151105A9F70EC07E01F701879131
:10FDA0007F011CD001501109C9F705C0813511F43C
:10FDB00088E027D02CD080E111D04ECFFC010A0181
:10FDC00067BFE895112407B600FCFDCF667029F0E7
:10FDD000452B19F481E187BFE89508959091C00003
:10FDE00095FFFCCF8093C60008958091C00087FFE7
:10FDF000FCCF8091C00084FD01C0A8958091C60011
:10FE00000895E0E6F0E098E1908380830895EDDFC7
:10FE1000803219F088E0F5DFFFCF84E1DFCFCF93A8
:10FE2000C82FE3DFC150E9F7CF91F1CF282E80E052
:10FE3000E8DFE0E0FF270994E199FECF9FBB8EBB8E
:10FE4000E09A99278DB30895262FE199FECF9FBBA5
:10FE50008EBB2DBB0FB6F894E29AE19A0FBE0196C5
:02FE6000089503
:02FFFE000206F9
:040000031000FC00ED
:00000001FF
